:100000000C9435000C945D000C945D000C945D0024
:100010000C945D000C945D000C945D000C945D00EC
:100020000C945D000C945D000C945D000C945D00DC
:100030000C945D000C945D000C945D000C945D00CC
:100040000C9421060C945D000C9485020C94D30250
:100050000C945D000C945D000C945D000C945D00AC
:100060000C945D000C945D003F0411241FBECFEF83
:10007000D8E0DEBFCDBF11E0A0E0B1E0EAEDFDE0E9
:1000800002C005900D92A232B107D9F711E0A2E2A9
:10009000B1E001C01D92A63EB107E1F710E0CAE64B
:1000A000D0E004C02297FE010E94E706C836D107BF
:1000B000C9F70E9495040C94EB060C940000FC0117
:1000C00088279927E89421912032E9F3293010F00C
:1000D0002E30C8F32B3241F02D3239F4689404C02D
:1000E0000E947D00820F911D219120532A30C0F380
:1000F0001EF4909581959F4F08957AE0979F902DDB
:10010000879F802D910D11240895AF92BF92CF92B9
:10011000DF92EF92FF920F931F9320910A0130918B
:100120000B0140910C0150910D012F5F3F4F4F4F3C
:100130005F4F20930A0130930B0140930C015093C1
:100140000D01F2E3CF2EF1E0DF2E609122017091DC
:100150002301252F332744275527C601422F0E940C
:10016000780260912201709123016F5F7F4F20918F
:100170000C01C601422F0E94780260912201709109
:1001800023016E5F7F4F20910B01C601422F0E9419
:10019000780260912201709123016D5F7F4FC6014B
:1001A00040910A010E947802E0900E01F0900F0148
:1001B0000091100110911101E12EFF240027112759
:1001C00060912201709123016C5F7F4FC6014E2D1B
:1001D0000E9478028BEBA82E81E0B82EC5016E2D0F
:1001E0004AE050E00E949105E090100160912201E8
:1001F000709123016B5F7F4FC6014E2D0E947802E4
:10020000C5016E2D4AE050E00E949105E0900F017B
:1002100060912201709123016A5F7F4FC6014E2DCC
:100220000E947802C5016E2D4AE050E00E949105BF
:1002300010910E016091220170912301695F7F4F3F
:10024000C601412F0E947802C501612F4AE050E0AB
:100250000E9491051F910F91FF90EF90DF90CF903A
:10026000BF90AF900895CF92DF92EF92FF920F93DD
:100270001F9302E311E060912201709123016D5FF1
:100280007F4FC8010E947102E82E60912201709197
:1002900023016E5F7F4FC8010E947102C82E6091DA
:1002A0002201709123016F5F7F4FC8010E9471028C
:1002B000D82E6091220170912301C8010E94710221
:1002C0003D2D332720E0FF242E293F299C2D80E05F
:1002D000282B392B442737FD4095542FB901CA01EB
:1002E0001F910F91FF90EF90DF90CF900895BF92F4
:1002F000CF92DF92EF92FF920F931F9302E311E0F0
:100300006091220170912301695F7F4FC8010E94B3
:100310007102E82E60912201709123016A5F7F4F84
:10032000C8010E947102B82E6091220170912301D0
:100330006B5F7F4FC8010E947102C82E609122013D
:10034000709123016C5F7F4FC8010E947102D82E0B
:100350000BEB11E0C8016D2D4AE050E00E949105C1
:10036000C8016C2D4AE050E00E949105C8016B2D38
:100370004AE050E00E949105C8016E2D4AE050E02D
:100380000E9491053D2D332720E09C2D992780E088
:10039000282B392BFF242E293F299B2D80E0282B49
:1003A000392B442737FD4095542FB901CA011F91BD
:1003B0000F91FF90EF90DF90CF90BF9008951F9323
:1003C00011E034C08BEB91E00E94C60390913001A4
:1003D0008E33D1F4992379F48BEB91E060E071E0F6
:1003E0000E940E061093300110922F0110922E01E0
:1003F000109224011BC0109331018BEB91E066E059
:1004000071E00E940E0612C0992381F0E0912E0146
:10041000F0912F01DF01AC5DBE4F8C933196F093CC
:100420002F01E0932E01EC5DFE4F10828BEB91E0EB
:100430000E949503181619062CF28091300188232A
:10044000F9F0809131018823D9F08BEB91E064E2DF
:1004500071E00E940E0684E291E00E945F00BC0100
:10046000109230011092310110922F0110922E0142
:10047000109224018BEB91E04AE050E00E94EF05DE
:100480001F9108950F931F930BEB11E0C80140E8F3
:1004900055E260E070E00E940E030E9485004091EA
:1004A0000E0150910F016091100170911101C8016E
:1004B0002AE030E00E947D050E947701AB01BC017B
:1004C000C8012AE030E00E947D050E943301AB01A3
:1004D000BC01C8012AE030E00E947D051F910F9108
:1004E0000895F999FECF72BD61BDF89A80B508955F
:1004F000F999FECF1FBA72BD61BD40BD0FB6F89429
:10050000FA9AF99A0FBE089508951F920F920FB6A6
:100510000F9211242F933F934F938F939F93EF93B9
:10052000FF938091C00082FD1DC04091C6002091C4
:100530007301309174012F5F3F4F2F7330708091A2
:100540007501909176012817390771F0E0917301D8
:10055000F0917401ED5CFE4F408330937401209361
:10056000730102C08091C600FF91EF919F918F911E
:100570004F913F912F910F900FBE0F901F901895A4
:10058000E091C701F091C801E05CFF4F819191912A
:1005900020813181821B930B8F739070892B11F016
:1005A0000E94840208951F920F920FB60F92112499
:1005B0002F933F938F939F93EF93FF932091B701D6
:1005C0003091B8018091B9019091BA01281739078B
:1005D00031F48091C1008F7D8093C10014C0E091FF
:1005E000B901F091BA01E958FE4F20818091B9011B
:1005F0009091BA0101968F7390709093BA01809395
:10060000B9012093C600FF91EF919F918F913F9187
:100610002F910F900FBE0F901F901895AF92BF9221
:10062000DF92EF92FF920F931F93CF93DF93EC0132
:100630007A018B01DD24403081EE580780E06807A5
:1006400080E0780711F0DD24D39491E0A92EB12C3D
:10065000EC89FD89DD2069F0C50108A002C0880F82
:10066000991F0A94E2F7808360E079E08DE390E0DF
:1006700005C0108260E874E88EE190E0A80197015F
:100680000E94C30621503040404050405695479547
:100690003795279580E12030380720F0DD2011F0D4
:1006A000DD24D6CFE889F9893083EA89FB89208364
:1006B00019A2EE89FF89408121E030E0C9010C8C4C
:1006C00002C0880F991F0A94E2F7482B4083EE89F5
:1006D000FF894081C9010D8C02C0880F991F0A94BF
:1006E000E2F7482B4083EE89FF894081C9010E8CD7
:1006F00002C0880F991F0A94E2F7482B4083EE89C5
:10070000FF8980810F8C02C0220F331F0A94E2F709
:10071000209528232083DF91CF911F910F91FF9087
:10072000EF90DF90BF90AF900895DC011C96ED91A3
:10073000FC911D97E05CFF4F219131918081918167
:10074000281B390B2F733070C9010895DC011C96EA
:10075000ED91FC911D97E05CFF4F20813181E054C9
:10076000F040DF01AE5BBF4F8D919C911197281730
:10077000390719F42FEF3FEF07C08D919C91E80FD7
:10078000F91F8081282F30E0C9010895DC011C96F3
:10079000ED91FC911D97E05CFF4F20813181E05489
:1007A000F040DF01AE5BBF4F8D919C9111972817F0
:1007B000390719F42FEF3FEF10C08D919C911197DD
:1007C000E80FF91F20818D919C91119701968F73ED
:1007D000907011969C938E9330E0C9010895DC01CE
:1007E00091968C919197882339F05496ED91FC91D4
:1007F0005597808186FFF9CF91961C920895CF93EB
:10080000DF93EC01EE85FF85E05CFF4F20813181B5
:10081000E054F0402F5F3F4F2F733070DF01AE5B2D
:10082000BF4F8D919C91119728173907D1F3E05C48
:10083000FF4F80819181E054F040E80FF91F608301
:10084000EE85FF85E05CFF4F31832083EE89FF89D1
:10085000208181E090E00F8C02C0880F991F0A94DC
:10086000E2F7282B208381E089A3EC89FD89808130
:100870008064808381E090E0DF91CF9108951092B1
:10088000BE011092BD0188EE93E0A0E0B0E080933D
:10089000BF019093C001A093C101B093C20186E152
:1008A00091E09093BC018093BB0183E391E090932E
:1008B000C8018093C70187E791E09093CA018093B4
:1008C000C90185EC90E09093CC018093CB0184EC3E
:1008D00090E09093CE018093CD0180EC90E09093D6
:1008E000D0018093CF0181EC90E09093D20180936E
:1008F000D10182EC90E09093D4018093D30186ECF7
:1009000090E09093D6018093D50184E08093D70145
:1009100083E08093D80187E08093D90185E08093BC
:10092000DA0181E08093DB010895CF93DF930E9489
:1009300069060E944202C0ECD2E00E94DF012097CB
:10094000E1F30E94C002F9CFCF92DF92EF92FF92C3
:100950000F931F93CF93DF937C016B018A01C0E05B
:10096000D0E00FC0D6016D916D01D701ED91FC91E2
:100970000190F081E02DC7010995C80FD91F0150E2
:1009800010400115110571F7CE01DF91CF911F9134
:100990000F91FF90EF90DF90CF900895EF92FF922C
:1009A0000F931F938C01DC01ED91FC910190F0817C
:1009B000E02D6DE009957C01D801ED91FC9101904D
:1009C000F081E02DC8016AE009959C012E0D3F1DC4
:1009D000C9011F910F91FF90EF900895CF93DF937E
:1009E000EC016115710519F420E030E00FC0DB0166
:1009F0000D900020E9F71197A61BB70BE881F9814C
:100A00000280F381E02DAD0109959C01C901DF91C0
:100A1000CF9108954F925F927F928F929F92AF9263
:100A2000BF92CF92DF92EF92FF920F931F93DF93CB
:100A3000CF93CDB7DEB7A1970FB6F894DEBF0FBE48
:100A4000CDBF2C01742ECB01223008F42AE019A26C
:100A500031E2C32ED12CCC0EDD1E822E9924AA2485
:100A6000BB24672D752FA50194010E94C30679014F
:100A70008A01C801B701A50194010E94A406472D6F
:100A8000461B0894C108D1084A3014F4405D01C0E7
:100A9000495CF6014083E114F1040105110521F0E0
:100AA0007E2C5F2DC801DDCFC201B6010E94EE048D
:100AB000A1960FB6F894DEBF0FBECDBFCF91DF91E8
:100AC0001F910F91FF90EF90DF90CF90BF90AF906C
:100AD0009F908F907F905F904F900895DC0121153B
:100AE000310541F4ED91FC910190F081E02D642FEE
:100AF000099508950E940A050895EF92FF920F93B9
:100B00001F937C010E946E058C01C7010E94CE04D8
:100B10009C01200F311FC9011F910F91FF90EF9091
:100B20000895CF92DF92EF92FF920F931F936C0183
:100B3000E62E9A01FF2400E010E0B801A7010E9410
:100B40006E058C01C6010E94CE04080F191FC80152
:100B50001F910F91FF90EF90DF90CF900895CF926B
:100B6000DF92EF92FF920F931F93CF93DF93EC01ED
:100B70006A017B012115310541F4E881F981019079
:100B8000F081E02D642F09951FC02A303105D1F482
:100B900077FF17C0E881F9810190F081E02D6DE2C7
:100BA00009958C0144275527BA014C195D096E0936
:100BB0007F09CE012AE00E940A059801280F391FFB
:100BC00004C02AE00E940A059C01C901DF91CF916F
:100BD0001F910F91FF90EF90DF90CF900895CF92EB
:100BE000DF92EF92FF920F931F936C017B019A01AA
:100BF0000027F7FC0095102FB801A7010E94AF0550
:100C00008C01C6010E94CE04080F191FC8011F9154
:100C10000F91FF90EF90DF90CF900895EF92FF92A9
:100C20000F931F937C010E94EE048C01C7010E9468
:100C3000CE04080F191FC8011F910F91FF90EF906C
:100C400008951F920F920FB60F9211242F933F9386
:100C50008F939F93AF93BF938091E1019091E201B5
:100C6000A091E301B091E4013091E5010196A11D4D
:100C7000B11D232F2D5F2D3720F02D570196A11D7B
:100C8000B11D2093E5018093E1019093E201A093CF
:100C9000E301B093E4018091DD019091DE01A09128
:100CA000DF01B091E0010196A11DB11D8093DD012E
:100CB0009093DE01A093DF01B093E001BF91AF916B
:100CC0009F918F913F912F910F900FBE0F901F908A
:100CD0001895789484B5826084BD84B5816084BDA4
:100CE00085B5826085BD85B5816085BDEEE6F0E0A5
:100CF000808181608083E1E8F0E010828081826001
:100D00008083808181608083E0E8F0E08081816081
:100D10008083E1EBF0E0808184608083E0EBF0E0B1
:100D2000808181608083EAE7F0E080818460808355
:100D300080818260808380818160808380818068FF
:100D400080831092C1000895629FD001739FF001CB
:100D5000829FE00DF11D649FE00DF11D929FF00D4B
:100D6000839FF00D749FF00D659FF00D9927729F82
:100D7000B00DE11DF91F639FB00DE11DF91FBD010D
:100D8000CF0111240895A1E21A2EAA1BBB1BFD015D
:100D90000DC0AA1FBB1FEE1FFF1FA217B307E4075A
:100DA000F50720F0A21BB30BE40BF50B661F771FB2
:100DB000881F991F1A9469F7609570958095909592
:100DC0009B01AC01BD01CF010895EE0FFF1F0590FF
:0A0DD000F491E02D0994F894FFCF90
:100DDA00737461727400656E6400E703000005E9CC
:100DEA003B0000000000FF03A4049503C603A6030A
:020DFA00EF0305
:00000001FF
